:100000000C9434000C9451000C94CD010C945100CC
:100010000C9451000C9451000C9451000C9451001C
:100020000C9451000C9451000C9451000C9451000C
:100030000C9451000C9410020C9451000C9451003B
:100040000C9451000C9451000C9451000C945100EC
:100050000C9451000C9451000C9451000C945100DC
:100060000C9451000C94510011241FBECFEFD8E026
:10007000DEBFCDBF11E0A0E0B1E0ECE7FEE002C0E2
:1000800005900D92AE33B107D9F721E0AEE3B1E0B0
:1000900001C01D92AF35B207E1F70E9431010C9407
:1000A0003C070C9400008CE18AB98BB98FEF84B9BE
:1000B00015B886E18AB91BB80895CF93DF93CDB701
:1000C000DEB76C970FB6F894DEBF0FBECDBF0E94AF
:1000D00024020E94530080E680937C0087E880938E
:1000E0007A008EE09E012F5F3F4FF901982F119209
:1000F0009A95E9F792E09C834CE352E05A8749874E
:10010000DE011F96FD0111928A95E9F781E08A8B45
:1001100044E352E05A8F498FE9E5F1E033832283CB
:10012000B183A0831092800010928100EFE6F0E08E
:10013000808181608083109285001092840084E029
:10014000809369009DBB6C960FB6F894DEBF0FBE1E
:10015000CDBFDF91CF910895CF93DF93CDB7DEB7B9
:10016000C456D1090FB6F894DEBF0FBECDBF0F2E17
:10017000F0EA8F2EF3E09F2EA12CB12CF02D0F2E44
:10018000F1E0EF2EF1E0FF2EF02D8E010F5F1F4FFB
:100190000E9480010E9474010E9434022FEF86E7C2
:1001A00091E0215080409040E1F700C000000E94A3
:1001B000AF0180E090E00E9421020E94B501809191
:1001C000430190914401A0914501B0914601BC01C9
:1001D000CD01052E5AE0660F771F881F991F5A958B
:1001E000D1F7502DA50194010E94FB0320934301F8
:1001F000309344014093450150934601809143015F
:1002000090914401A0914501B09146014AE069E412
:1002100071E00E941D04782E692E0E946301D82E81
:10022000C92E0E943F016F927F92CF92DF929F93DF
:100230008F93FF92EF921F930F930E944204C80185
:100240000E9444022FEF89E698E1215080409040BF
:10025000E1F700C000000FB6F894DEBF0FBECDBFBF
:1002600097CF0E945D0078942FEF89E698E12150A6
:1002700080409040E1F700C000000E94AC00609117
:1002800047017091480180E090E00E94000320E067
:1002900030E040EA50E40E948E0320E030E040E885
:1002A0005AE30E948E0320E030E040E05FE30E94CA
:1002B0005D0220E030E048EC52E40E948E030E9490
:1002C000CA02CB010895609141017091420180E022
:1002D00090E00E94000320E030E0A9010E945E024D
:1002E0000E94CA02CB010895809141019091420180
:1002F0008A3E914018F48CE18BB908951BB808959B
:10030000209178008091790090E0880F991F880FE4
:10031000991F2295269526952370822B20917C008B
:10032000203641F4909342018093410181E680930D
:100330007C000FC020917C00213641F4909348014D
:100340008093470180E680937C0003C080E6809321
:100350007C00EAE7F0E080818064808308958091EA
:10036000C60081110E94800108952FEF80E792E07E
:10037000215080409040E1F700C000005C9A20E4EA
:100380002A95F1F71BB88FEF90E722E0815090405B
:100390002040E1F700C0000008951F920F920FB6B1
:1003A0000F9211248F939F93AF93BF93EF93FF937B
:1003B0008091000181110FC010928500109284007D
:1003C00010923E01E1E8F0E080818560808381E069
:1003D000809300011AC0809100018130B1F4109225
:1003E00081008091840090918500A0E0B0E080932E
:1003F000430190934401A0934501B093460181E0ED
:1004000090E09093400180933F01FF91EF91BF9165
:10041000AF919F918F910F900FBE0F901F901895E5
:100420001F920F920FB60F9211248F9380913E016D
:100430008F5F80933E018F910F900FBE0F901F90A2
:1004400018958093000108951092C50087E6809367
:10045000C400E2ECF0E0808186608083E1ECF0E0B3
:100460008081886180830895E0ECF0E080818823BA
:10047000ECF78091C6000895E0ECF0E0908195FFE4
:10048000FDCF8093C60008950F931F93CF93DF9302
:10049000EC018B018881882339F02196B8010E94F4
:1004A0003C0289918111FACFB8018AE00E943C0296
:1004B000DF91CF911F910F9108955058BB27AA2724
:1004C0000E9475020C9454030E94460338F00E9467
:1004D0004D0320F039F49F3F19F426F40C944303A4
:1004E0000EF4E095E7FB0C943D03E92F0E946503B1
:1004F00058F3BA17620773078407950720F079F459
:10050000A6F50C9487030EF4E0950B2EBA2FA02DC0
:100510000B01B90190010C01CA01A0011124FF27B0
:10052000591B99F0593F50F4503E68F11A16F040AB
:10053000A22F232F342F4427585FF3CF46953795AA
:100540002795A795F0405395C9F77EF41F16BA0B6F
:10055000620B730B840BBAF09150A1F0FF0FBB1F1D
:10056000661F771F881FC2F70EC0BA0F621F731F66
:10057000841F48F4879577956795B795F7959E3FC3
:1005800008F0B0CF9395880F08F09927EE0F979554
:10059000879508950E94D1026894B1110C94880344
:1005A00008950E946D0388F09F5798F0B92F9927FE
:1005B000B751B0F0E1F0660F771F881F991F1AF04E
:1005C000BA95C9F714C0B13091F00E948703B1E029
:1005D00008950C948703672F782F8827B85F39F028
:1005E000B93FCCF3869577956795B395D9F73EF4E7
:1005F00090958095709561957F4F8F4F9F4F08958F
:10060000E89409C097FB3EF49095809570956195AC
:100610007F4F8F4F9F4F9923A9F0F92F96E9BB2762
:100620009395F695879577956795B795F111F8CFDE
:10063000FAF4BB0F11F460FF1BC06F5F7F4F8F4F49
:100640009F4F16C0882311F096E911C0772321F03F
:100650009EE8872F762F05C0662371F096E8862FD7
:1006600070E060E02AF09A95660F771F881FDAF72E
:10067000880F9695879597F9089597F99F6780E871
:1006800070E060E008959FEF80EC089500240A94E4
:100690001616170618060906089500240A9412165D
:1006A0001306140605060895092E0394000C11F490
:1006B000882352F0BB0F40F4BF2B11F460FF04C03D
:1006C0006F5F7F4F8F4F9F4F089557FD9058440F96
:1006D000551F59F05F3F71F04795880F97FB991FA1
:1006E00061F09F3F79F0879508951216130614065E
:1006F000551FF2CF4695F1DF08C0161617061806EB
:10070000991FF1CF86957105610508940895E894C5
:10071000BB2766277727CB0197F908950E94A1038D
:100720000C9454030E94460338F00E944D0320F0BD
:10073000952311F00C943D030C94430311240C9465
:1007400088030E94650370F3959FC1F3950F50E0F5
:10075000551F629FF001729FBB27F00DB11D639F73
:10076000AA27F00DB11DAA1F649F6627B00DA11D19
:10077000661F829F2227B00DA11D621F739FB00DBF
:10078000A11D621F839FA00D611D221F749F33272F
:10079000A00D611D231F849F600D211D822F762FC8
:1007A0006A2F11249F5750409AF0F1F088234AF0A5
:1007B000EE0FFF1FBB1F661F771F881F9150504011
:1007C000A9F79E3F510580F00C943D030C948803DB
:1007D0005F3FE4F3983ED4F3869577956795B79598
:1007E000F795E7959F5FC1F7FE2B880F911D9695B2
:1007F000879597F90895A1E21A2EAA1BBB1BFD014C
:100800000DC0AA1FBB1FEE1FFF1FA217B307E407EF
:10081000F50720F0A21BB30BE40BF50B661F771F47
:10082000881F991F1A9469F7609570958095909527
:100830009B01AC01BD01CF010895BB274A3031F4C3
:10084000992322F4BDE2909581959F4F0C94290441
:10085000BB27FB015527AA27880F991FAA1FA4179A
:1008600010F0A41B83955051B9F7A05DAA3308F08E
:10087000A95DA193009779F7B111B1931192CB01C2
:100880000C945B06AEE0B0E0E8E4F4E00C941307EF
:100890000D891E8986E08C831A8309838FEF9FE779
:1008A0009E838D83AE01475E5F4F6F89788DCE0149
:1008B00001960E946404EF81F885E00FF11F108219
:1008C0002E96E4E00C942F07ABE0B0E0EAE6F4E00B
:1008D0000C9405076C017B018A01FC0117821682CA
:1008E000838181FFCCC1CE0101963C01F601938149
:1008F000F70193FD859193FF81917F01882309F48E
:10090000BAC1853239F493FD859193FF81917F01BE
:10091000853229F4B60190E00E946B06E7CF912C56
:10092000212C312CFFE1F315D8F08B3279F038F41B
:10093000803279F08332A1F4232D20611DC08D32E5
:1009400061F0803369F4232D216016C0832D82600D
:10095000382EE32DE4603E2E2AC0F32DF8601DC032
:1009600037FC2DC020ED280F2A3040F08E32B9F42C
:1009700036FC81C1232D2064322E19C036FE06C0FC
:100980008AE0989E200D1124922E11C0EAE02E9E3E
:10099000200D1124222EF32DF0623F2E08C08C363C
:1009A00021F4832D8068382E02C0883641F4F70187
:1009B00093FD859193FF81917F018111B3CF982F92
:1009C0009F7D9554933028F40C5F1F4F9FE39983CC
:1009D0000DC0833631F0833771F0833509F059C08B
:1009E00021C0F801808189830E5F1F4F8824839482
:1009F000912C530113C02801F2E04F0E511CF80155
:100A0000A080B18036FE03C0692D70E002C06FEF98
:100A10007FEFC5010E9450064C018201F32DFF7744
:100A20003F2E16C0280122E0420E511CF801A08082
:100A3000B18036FE03C0692D70E002C06FEF7FEF1A
:100A4000C5010E9445064C01F32DF0683F2E82013E
:100A500033FC1BC0822D90E088169906B0F4B601D5
:100A600080E290E00E946B062A94F4CFF50137FCF7
:100A7000859137FE81915F01B60190E00E946B067F
:100A800021102A9421E0821A91088114910471F7AF
:100A9000E8C0843611F0893641F5F80137FE07C009
:100AA00060817181828193810C5F1F4F08C06081DA
:100AB0007181072E000C880B990B0E5F1F4FF32DD1
:100AC000FF763F2E97FF09C09095809570956195B0
:100AD0007F4F8F4F9F4FF0683F2E2AE030E0A301F9
:100AE0000E94A706882E861845C0853731F4232D2D
:100AF0002F7EB22E2AE030E025C0932D997FB92EAB
:100B00008F36C1F018F4883579F0B5C0803719F008
:100B1000883721F0B0C0E92FE061BE2EB4FE0DC0D1
:100B2000FB2DF460BF2E09C034FE0AC0292F2660B9
:100B3000B22E06C028E030E005C020E130E002C05F
:100B400020E132E0F801B7FE07C060817181828147
:100B500093810C5F1F4F06C06081718180E090E03F
:100B60000E5F1F4FA3010E94A706882E8618FB2D3B
:100B7000FF773F2E36FE0DC0232D2E7FA22E891427
:100B800058F434FE0BC032FC09C0832D8E7EA82E93
:100B900005C0B82CA32C03C0B82C01C0B92CA4FEEE
:100BA0000FC0FE01E80DF11D8081803321F49A2DE4
:100BB000997EA92E09C0A2FE06C0B394B39404C0C6
:100BC0008A2D867809F0B394A3FC11C0A0FE06C05C
:100BD000B21488F4280C922C9B180EC0B21460F446
:100BE000B60180E290E00E946B06B394F7CFB21496
:100BF00018F42B1802C0982C212CA4FE10C0B601AA
:100C000080E390E00E946B06A2FE17C0A1FC03C027
:100C100088E790E002C088E590E0B6010CC08A2D1C
:100C2000867859F0A1FE02C08BE201C080E2A7FCE9
:100C30008DE2B60190E00E946B06891438F4B6018B
:100C400080E390E00E946B069A94F7CF8A94F301B8
:100C5000E80DF11D8081B60190E00E946B068110C5
:100C6000F5CF222009F442CEB60180E290E00E9446
:100C70006B062A94F6CFF6018681978102C08FEF2A
:100C80009FEF2B96E2E10C942107FC010590615047
:100C900070400110D8F7809590958E0F9F1F089592
:100CA000FC016150704001900110D8F7809590953B
:100CB0008E0F9F1F0895DC01FC01672F7191772330
:100CC000E1F7329704C07C916D9370836291AE1707
:100CD000BF07C8F308950F931F93CF93DF93FB01D2
:100CE000238121FD03C08FEF9FEF2CC022FF16C090
:100CF00046815781248135814217530744F4A081EE
:100D0000B1819D012F5F3F4F318320838C932681DA
:100D100037812F5F3F4F3783268314C08B01EC014F
:100D2000FB010084F185E02D0995892BE1F6D801BE
:100D300016968D919C911797019617969C938E937A
:100D40001697CE01DF91CF911F910F910895FA016F
:100D5000AA27283051F1203181F1E8946F936E7FFA
:100D60006E5F7F4F8F4F9F4FAF4FB1E03ED0B4E0EB
:100D70003CD0670F781F891F9A1FA11D680F791F2C
:100D80008A1F911DA11D6A0F711D811D911DA11D3D
:100D900020D009F468943F912AE0269F112430194D
:100DA000305D3193DEF6CF010895462F4770405DE8
:100DB0004193B3E00FD0C9F7F6CF462F4F70405D97
:100DC0004A3318F0495D31FD4052419302D0A9F7F2
:100DD000EACFB4E0A6959795879577956795BA95EC
:100DE000C9F700976105710508959B01AC010A2EB2
:100DF00006945795479537952795BA95C9F7620F89
:100E0000731F841F951FA01D08952F923F924F922C
:100E10005F926F927F928F929F92AF92BF92CF928A
:100E2000DF92EF92FF920F931F93CF93DF93CDB793
:100E3000DEB7CA1BDB0B0FB6F894DEBF0FBECDBF0B
:100E400009942A88398848885F846E847D848C84DC
:100E50009B84AA84B984C884DF80EE80FD800C81E5
:100E60001B81AA81B981CE0FD11D0FB6F894DEBFC8
:0C0E70000FBECDBFED010895F894FFCF38
:100E7C00017B2273656E736F7244617461223A7BDD
:100E8C002274656D70223A25642C226C6967687433
:100E9C00223A25642C2022756C747261736F6E6516
:0E0EAC0073656E736F72223A25737D7D0000B0
:00000001FF
